:020000020000FC
:1000000002C00A000300A0E0B2E0CFEFD1E2CDBF12
:10001000DEBF882400271127222733274427E2E068
:10002000F0E054915815C0F055278C92CDB7DEB74B
:100030006197E4E0F0E0649169838A820ED08C815C
:100040009B81082F192F5D91509F200D311D519FCD
:10005000300D411D8394E3CFFFCFCF93DF938F9279
:100060000F931F932F933F934F939F92AF92CDB7D0
:10007000DEB72997CDBFDEBF33273B8344274A83B2
:10008000222721E029838827992781E08D839C837B
:100090003B814A8129818D819C810E811F811217AC
:1000A00050F0382F492F039F802D912D049F900DE4
:1000B00023950C944F0089879887CDB7DEB7299692
:1000C000DEBFCDBFAF909F904F913F912F911F9179
:0A00D0000F918F90DF91CF910895FA
:00000001FF
