:020000020000FC
:1000000002C00A000300A0E0B2E0CFEFD1E2CDBF12
:10001000DEBF882400271127222733274427E2E068
:10002000F0E05491581570F055278C920CD0082FA1
:10003000192F5D91509F200D311D519F300D411D95
:100040008394EDCFFFCFCF93DF93CDB7DEB7239768
:10005000CDBFDEBF29833A834B83E4E0F0E03491E7
:10006000B32E33274427222721E08827992781E0D0
:10007000821650F0382F492FB39E802D912DB49EBB
:10008000900D23950C94380029813A814B81239659
:0A009000DEBFCDBFDF91CF910895D0
:00000001FF
