:020000020000FC
:10000000A0E0B2E0CFEFD1E2CDBFDEBF8824002771
:100010001127222733274427582D5A3070F45527AB
:100020008C920CD0082F192F5D91509F200D311DFF
:10003000519F300D411D8394EFCFFFCFCF93DF93BE
:10004000CDB7DEB72397CDBFDEBF29833A834B837D
:10005000282D3327442788279927281578F4B52E8B
:100060005C91382F492F539F802D912D549F900DD7
:100070005C935B2DBB2423950C942D0029813A8140
:0E0080004B812396DEBFCDBFDF91CF91089557
:00000001FF
