:020000020000FC
:040000000C94330029
:10005C000C9445000C943200189501E20FEF112717
:10006C000DBF0FEF07B9002708B9009300020093EA
:10007C000302C1E0D2E000270993088338C00FB710
:10008C000F93DF93CF939F938F93809101020196EF
:10009C0084380EE1900701F5C1E0D2E00027099306
:1000AC0008838091000283958C3330F088279091DF
:1000BC0003029395909303028093000211271091F1
:1000CC000302111F111F111F111F111F111F00916E
:1000DC000002102B18B904C0809301029093020205
:1000EC008F919F91CF91DF910F910FBF189500E0E9
:1000FC0004BD02E005BD01E000936E007894FFCFD3
:00000001FF
