:020000020000FC
:100000000C9406000C941A000C9430001FE00FEFC3
:100010000DBF01E20EBF0FEF07B9002708B90AB9FB
:100020000BB905E0009369000DB303600DBB789434
:100030000C9446000F930FB70F93239533953F3FD2
:10004000E8F333272F3FC8F32227103011F01A9519
:1000500001C01FE0012F08B90F910FBF0F91189534
:100060000F930FB70F93239533953F3FE8F3332753
:100070002F3FC8F322271F3011F0139501C010E065
:10008000012F08B90F910FBF0F9118950027039505
:02009000FECFA1
:00000001FF
