:020000020000FC
:100000000C9406000C941A000C9431000FE00FEFD2
:100010000DBF01E20EBF0FE008B907B900270AB90A
:100020000BB90AE0009369000DB303600DBB78942F
:100030000C944B000F930FB70F932395339500004B
:100040003F3FE0F333272F3FC0F32227103011F05A
:100050001A9501C01FE0012F08B90F910FBF0F9132
:1000600018950F930FB70F931F93239533950000A7
:100070003F3FE0F333272F3FC0F322271F3011F01B
:10008000139501C010E01883012F1F9108B90F913B
:0E0090000FBF0F911895002703950000FDCFBC
:00000001FF
