:020000020000FC
:100000000C9406000C941A000C9431000FE00FEFD2
:100010000DBF01E20EBF0FE008B907B9002700BB12
:1000200001BB0AE0009369000DB303600DBB789437
:100030000C9448000F930FB70F932DE03DEF40EA6B
:100040004A95F1F73A95E1F72A95D1F7103011F07A
:100050001A9501C01FE0012F08B90F910FBF0F9132
:1000600018950F930FB70F932DE03DEF40EA4A9597
:10007000F1F73A95E1F72A95D1F71F3011F0139572
:1000800001C010E0012F08B90F910FBF0F91189513
:08009000002703950000FDCFDD
:00000001FF
