:020000020000FC
:100000000C9406000C941A000C9431000FE00FEFD2
:100010000DBF01E20EBF0FE008B907B900270AB90A
:100020000BB905E0009369000DB303600DBB789434
:100030000C9448000F930FB70F932395339500004E
:100040003F3FE0F333272F3FC0F32227103011F05A
:100050001A9501C01FE0012F08B90F910FBF0F9132
:1000600018950F930FB70F932395339500003F3FDB
:10007000E0F333272F3FC0F322271F3011F01395F1
:1000800001C010E0012F08B90F910FBF0F91189513
:0A00900000270FE003950000FDCFEC
:00000001FF
