:020000020000FC
:100000000C9433000C948B000C9493000C942901F5
:10005C000C949B000C94320018950FEF0DBF01E22D
:10006C000EBF0FEF00BB01B9002701BB02B9C1E005
:10007C00D2E0002709930883C3E0D2E0002709935C
:10008C000883112733272227552708E3E2D0F1D024
:10009C000AD108E3DED0EDD0FDD008E3DAD0E9D008
:1000AC0008E3D7D0E6D008E0D4D0E3D001E0D1D03B
:1000BC00E0D006E0CED0DDD00EE0CBD0DAD000C060
:1000CC006627772700E10DB90FEF00939A00002700
:1000DC0000939B000AE2009369000DB307600DBB0F
:1000EC0001E20093900004E000939100002704BD0E
:1000FC0002E005BD01E000936E0060939B006093ED
:10010C009A00609300027894FFCFF03009F01895B4
:10011C00F1E0703009F074511895F03009F0189531
:10012C00F1E0743609F07C5E18950FB70F93DF93EE
:10013C00CF939F938F93809101029091020201962D
:10014C00843A06E0900729F0809301029093020212
:10015C0006C0C1E0D2E0002709930883FF278091F5
:10016C00030290910402019697300CE68007F1F49B
:10017C00703021F4662760939A0011C0171779F03C
:10018C0060919A00171730F46F3F49F06D5F6093E0
:10019C009A0005C0603019F0635060939A00C3E078
:1001AC00D2E00027099308830CD004C0809303028B
:1001BC00909304028F919F91CF91DF910F910FBF7C
:1001CC00189501E046D055D000E843D052D0172FF7
:1001DC0007D008EA3ED04DD0152F552701D00895F1
:1001EC001F93143690F41A30E0F400910002222789
:1001FC0020930002013019F400E332D03AD0105DA4
:10020C00012F2ED036D01F91089501E000930002EB
:10021C0034E61A953A953030E1F72395143668F0A8
:10022C00E0CF0027009300023AE01A953A9530305F
:10023C00E1F723951A3008F0D4CF205D022F10D0AF
:10024C0018D02227CECF0FB70F9353950F910FBF16
:10025C00189501BB1FD0169A1DD016981BD0089567
:10026C0001BB179A17D0169A15D0169813D0179859
:10027C0008950F93002700BB01BB159A0BD0169A5B
:10028C0009D00FB1169807FDF9CF15980FEF00BBE9
:10029C000F9108958F939F939FE08CE90197F1F74D
:1002AC009F918F910895F6DFF5DFF4DFF3DFF2DF36
:0202BC000895A3
:00000001FF
