:020000020000FC
:040000000C947200EA
:1000E4005FEF5DBF51E25EBF50EF50930A015FEFD7
:1000F40050BB51B9552751BB52B988279927772747
:1001040008E370D089D0A4D008E36CD085D097D010
:1001140008E368D081D008E365D07ED008E062D0DF
:100124007BD001E05FD078D006E05CD075D00EE0E3
:1001340059D072D03FEE222730930B015FEF5A95CE
:10014400F1F7509109015F705F3061F031E01127E0
:10015400452F432319F40FD00C949C001395330FAF
:100164000C94AA00233011F46627E4CF0894331FBB
:1001740023950C949E00233049F0133059F0512FED
:10018400550F510F520F53950C94D90051E4510F50
:100194000C94DB00203029F0213031F053E20C9430
:1001A400DB005AE20C94DB0055270C94D90010E3D1
:1001B400510F713158F071E001E014D02DD00EE0F0
:1001C40011D02AD0052F19D027D00BC0613049F0A7
:1001D40061E07395052F11D01FD0CDB7DEB76197BD
:1001E4003DD0089501BB0000169A000000000000F5
:1001F4001698000000000000089501BB179A000043
:1002040000000000169A000000000000169800008C
:1002140000000000179808950F93002700BB01BB4E
:10022400159A0000169A0000000000000FB11698FD
:1002340007FDF7CF15980FEF00BB0F9108958F932B
:100244009F939FE08CE90197F1F79F918F91089517
:10025400F6DFF5DFF4DFF3DFF2DF0895AF93BF934A
:10026400CF93DF930F931F932F933F934F935F93FA
:100274006F937F938F939F93CDB7DEB75D81503398
:1002840008F4EAC0543408F0E7C0513408F40EC04E
:10029400A4E0B2E08C91803071F4533409F45DC071
:1002A40010E4511BA4E0B2E05C93D6C09A8189812A
:1002B4008030C1F11DC0A0E0B2E00D911C91A2E01C
:1002C400B2E02D913C91A4E0B2E08C91813019F41C
:1002D400020F131F03C0021B130B00C0A0E0B2E007
:1002E4000D931C932227A2E0B2E02D932C93D5CF3B
:1002F400A2E0B2E00D911C919801220F331F000F70
:10030400111F000F111F000F111F020F131F2227AF
:10031400332780E3581B8827050FA2E0B2E00D9332
:100324001C939AC0A0E0B2E00D911C919801220F99
:10033400331F000F111F000F111F000F111F020F99
:10034400131F2227332780E3581B8827050F181F04
:10035400A0E0B2E00D931C937FC0A0E0B2E00D9149
:100364001C9144245524442755279801C901969586
:100374008795369527953695279536952795391B74
:10038400280B88279927C901880F991F220F331F2B
:10039400220F331F220F331F280F391F8827992755
:1003A4002801531A420AC9019695879536952795CF
:1003B4003695279536952795391B280B8827992735
:1003C4008901CA01880F991F440F551F440F551FF7
:1003D400440F551F480F591F88279927550D441D51
:1003E400013018F68A01980101E0FCDE15DF0EE009
:1003F400F9DE12DFC90196958795369527953695CE
:10040400279536952795391B280B88279927C901E5
:10041400880F991F220F331F220F331F220F331F00
:10042400280F391F882799272801531A420A40E3C5
:10043400440E042DE2DEF0DEC901969587953695CB
:1004440027953695279536952795391B280B8827A8
:1004540099278901013070F69F918F917F916F9157
:100464005F914F913F912F911F910F91DF91CF9108
:06047400BF91AF91089555
:00000001FF
